:020000040800F2
:1000000048110020C1010008B51D0008B71D0008F7
:10001000BB1D0008BF1D0008C31D00080000000034
:10002000000000000000000000000000C91D0008E2
:10003000C71D000800000000CB1D0008CD1D0008F2
:10004000F91D0008FB1D0008FD1D0008FF1D00082C
:10005000011E0008031E0008471F0008491F000872
:100060004B1F00084D1F00086B1F00086D1F000884
:100070006F1F0008711F0008731F0008751F00081C
:10008000771F0008791F00087B1F0008A91F0008C0
:10009000AB1F0008AD1F0008AF1F0008D308000801
:1000A000B11F0008B31F0008B51F0008B71F0008E4
:1000B000B91F0008E31F0008E51F00088F20000893
:1000C0009120000893200008952000089720000840
:1000D000992000089B2000089D2000089F20000810
:1000E000A1200008A3200008A5200008A7200008E0
:1000F000A9200008AB200008AD200008AF200008B0
:10010000B1200008B3200008B5200008B72000087F
:10011000B9200008BB200008BD200008BF2000084F
:10012000C1200008C3200008C5200008C72000081F
:10013000DFF80CD003F09EFC004800471B070008C6
:100140004811002030BF704720BF704740BF704744
:10015000BFF36F8F7047BFF34F8F7047BFF35F8F51
:10016000704701DF7047EFF31480704780F3148805
:10017000BFF36F8F7047EFF30980704780F30988F2
:100180007047EFF30880704780F30888704762B6C5
:10019000704772B67047EFF31080704771B67047C2
:1001A00061B67047EFF31380704780F31188704792
:1001B000EFF31280704740BA704700BA70470000F2
:1001C000004800473101000810B504460121FE48EF
:1001D00002F0BBFE0121FC4802F0C3FE0020FB49F7
:1001E000088001228021FA4801F060FD01221146B9
:1001F000F84801F05BFD01220221F64801F056FDAE
:1002000006E0F2480088F149088008460088088026
:10021000EE480088A042F4DB00228021EC4801F087
:1002200045FD00220121EB4801F040FD00220221A2
:10023000E84801F03BFD10BD70B506460C4615467A
:10024000E5480480304601F0DDFD0020DF490880EC
:1002500006E0DE480088DD490880084600880880FE
:10026000DA480088A842F4DB70BD38B504460D4674
:1002700017208DF8000000208DF8010003208DF874
:10028000020001208DF80300684601F08EFFD2487D
:10029000048000BF0020D1490880D1480078401C6C
:1002A000CF49087008460078052801DD0020087055
:1002B000CC49CB4A1278885C01F0A4FD03E0C74822
:1002C0000088C6490880C5480088A842F7DBC648B0
:1002D0000088401CC4490880C448007818B9084602
:1002E0000088C828D6DBC0480088C82818DB002151
:1002F000B54802F02AFE0021B34802F032FE002287
:100300008021B34801F0D2FC00220121B14801F064
:10031000CDFC00220221AF4801F0C8FC002038BD0E
:100320000120FCE710B50021A74802F00EFE0021D5
:10033000A54802F016FE00228021A54801F0B6FC77
:1003400000220121A34801F0B1FC00220221A148B2
:1003500001F0ACFC10BD10B5A5480078052828D2E6
:10036000DFE800F0030A142324003220FFF72CFFFB
:1003700001209F4908701DE032224FF47A71052058
:10038000FFF75AFF02209A49087013E01C214FF42E
:10039000FA70FFF76AFF012803D10320944908701F
:1003A00002E004209249087004E003E0FFF7BAFF7E
:1003B00000E000BF00BF10BD1FB58E4803F0AAF8D3
:1003C0004FF4964000900020ADF80400ADF8060010
:1003D000ADF80800ADF80C000C20ADF80A00694635
:1003E000844803F0E0F8012240F22771814803F0CD
:1003F00054F9012240F225517E4803F04EF90121C3
:100400007C4803F03EF91FBD70B505460E4600243A
:1004100000BF0BE0295D774803F09BF900BF402146
:10042000744803F0EDF90028F9D0641CB442F1DB04
:1004300070BD10B500207049087020216F4801F090
:1004400017FC10B905206C4908704FF400516B4837
:1004500001F00EFC10B90120674908704FF480418B
:10046000664801F005FC10B90220634908704FF49A
:100470000041624801F0FCFB10B903205E4908709E
:100480002021544801F0F4FB10B904205A490870A7
:100490005948007810BD10B56FF0040002F002FA60
:1004A00000220521564801F06DFF564802F00EFA71
:1004B000012002F02AFA10BD08B501213D2002F00A
:1004C00089F90121880402F092F94EF22000ADF87A
:1004D000000048208DF803006946484801F036FBCB
:1004E0002020ADF8000048208DF803006946394807
:1004F00001F02CFB0220ADF8000014208DF8030061
:100500006946414801F022FB4FF4E070ADF800006D
:1005100004208DF8030003208DF8020069462D4861
:1005200001F014FB0621012001F015FC0721012038
:1005300001F011FC0821012001F00DFC4FF4E070E6
:10054000324908600020087110204871012088712C
:10055000084600F069FF4FF4E070ADF8000003209A
:100560008DF8020018208DF803006946234801F039
:10057000EDFA0320ADF8000010208DF803000320F1
:100580008DF802006946134801F0E0FA8020ADF8CA
:10059000000010208DF8030003208DF8020069464A
:1005A0000B4801F0D3FA4FF48060ADF8000003204F
:1005B0008DF8020018208DF803006946054801F007
:1005C000C5FA4FF4006023E000340140C20000206F
:1005D00000080140000C0140C4000020560000202B
:1005E0005800002069000020520000205000002028
:1005F0000800002000480040B40000200010014026
:100600009AC30200A0BB0D00001401409C00002012
:10061000ADF8000004208DF803006946FE4801F0A3
:1006200095FA08BD08B500214FF0006001F06EFE9C
:100630004FF4C06001F0B3FD17208DF800000120D9
:100640008DF801008DF8020000208DF80300684647
:1006500001F0ABFD1C208DF8000001208DF8010099
:1006600002208DF8020001208DF80300684601F099
:100670009CFD1D208DF8000001208DF80100032055
:100680008DF8020001208DF80300684601F08DFD11
:100690001E208DF8000001208DF8010004208DF847
:1006A000020001208DF80300684601F07EFD08BDC0
:1006B00010B501F01FFF4FF4803001F03AFF01F058
:1006C00077FF0446012C25D1102000F055FF0220B1
:1006D00000F03CFF002001F0B4FF002001F0C3FF58
:1006E000A00201F0B7FF4FF4E011200401F08CFFED
:1006F000012001F095FF00BF392001F03DFF0028E7
:10070000FAD0022001F08FFF00BF01F095FF08280A
:10071000FBD101E000BFFEE710BD00BFFFF7C8FF3F
:10072000FFF780FF00F062FA00F01AFA00F0DEFA3C
:1007300000F08CFA00F0B2FAFFF7BEFEFFF73CFEC5
:10074000FFF7A9FE012002F0C5F80020B3490870A8
:10075000B34908804FF4FA70B249086069E0FFF7C6
:10076000FAFDFFF766FEB04908700846007810B938
:100770000120AE490870AC48007801280ED1AB4882
:10078000007801280AD10020A9490870A9490880E9
:10079000A2490870A5490870A1490880A2480078BC
:1007A000022811D1A148007801280DD100209F49CD
:1007B00008700021A04802F0C8FB00219E4802F00A
:1007C000D0FBC8209749086097480078032817D1C4
:1007D0009A480088B0F57A7F0DDD9248006840F6AF
:1007E000C411884204DA8F4800680A308D490860D5
:1007F0000020924908808B4800889149088018E0C1
:1008000089480078042814D18C480088B0F57A7F94
:100810000BDD84480068C82804DD824800680A3877
:10082000804908600020854908807E480088844906
:10083000088094E72DE9FC5F04460D46281B81499A
:1008400008600968804A1268022303FB12117F4A7C
:100850001268881803F0A0F883467D48016858465E
:1008600003F068F881467748006803F095F8009037
:1008700078480168009803F05DF88346714909687B
:10088000714A1268881A03F087F85946019002F0FD
:10089000F9FF8246494602F0F5FF80466E4801683E
:1008A000404603F047F8074603F07FF806466648DF
:1008B000006866490860634800686349086030461C
:1008C000BDE8FC9F002101E04A1C91B28142FBDCA3
:1008D000704770B50024402000F01CFE10B140208D
:1008E00000F029FE802000F015FE10B1802000F0FD
:1008F00022FE4FF4807000F00DFE18B14FF48070AE
:1009000000F019FE444801F0BCF9C4B20220FFF720
:10091000D9FF414801F0B5F9C5B2AC4200D070BD75
:10092000002440213C4801F0A3F9012801D144F002
:1009300001048021384801F09BF9012801D144F0DD
:1009400002044FF48071344801F092F9012801D17A
:1009500044F0040431480078A8B940484049097877
:10096000405CA04205D13F480088401C3D490880BA
:1009700002E000203B4908803A480088032802DB57
:1009800001202649087025480078012802D1204618
:1009900001F038FA00BFC2E72DE9F04704460D46E2
:1009A000601B3149086008460068012804DC0846DD
:1009B0000068B0F1FF3F7DDA2B4909682B4A1268C5
:1009C0000A442B490968A2EB410002F0E5FF80468A
:1009D0001F480168404602F0ADFF06462248006805
:1009E00002F0DAFF82461B480168504602F0A2FF7F
:1009F00080461D4909681E4A1268881A02F0CCFF19
:100A0000824615480168504602F094FF81464146EF
:100A100002F038FF07462DE0000C01405000002096
:100A20005200002090000020A5000020A600002019
:100A3000080000204E00002000340140C2000020C9
:100A4000C4000020B0000020AC000020A80000205E
:100A5000300000202C000020280000206900002029
:100A60005800002054000020340000203C000020EA
:100A700038000020314602F005FF31490860084681
:100A8000006802F092FF2F4908604FF07E512C4819
:100A9000006802F0ADFF03D24FF07E502849086095
:100AA00029492748006802F099FF02D226482449C4
:100AB000086000E02DE0234800680A2802DD0A20D3
:100AC000204908601F48006810F1050F03DA6FF035
:100AD00004001C4908601D4800681A490968084458
:100AE0001A490860084600683C2801D23C2008608A
:100AF0001648006840F2FE71884202D90846134940
:100B000008601348006813490860134800681049DA
:100B10000860BDE8F08710B504461048046000BFC7
:100B20000E4800680028FBD101F0D4FE10BD0B4830
:100B3000006820B109480068401E084908607047F5
:100B40004000002044000020000080BF140000206E
:100B5000380000203C00002034000020000000206D
:100B600000B585B001214FF4017001F033FE002083
:100B7000009001208DF804008DF805004FF46020EE
:100B800002900020039002208DF8100069462C4846
:100B900000F031F9062301220021294800F0C3F9B1
:100BA000062302220121264800F0BDF90121244834
:100BB00000F058F90121224800F049F9204800F0DE
:100BC00068F900BF1E4800F069F90028FAD11C48F6
:100BD00000F06EF900BF1A4800F06FF90028FAD152
:100BE0000121174800F073F905B000BD00B58BB0C6
:100BF0000121084601F0E1FD124800F0E7FA104833
:100C00004C30009010480190002002900220039088
:100C100000200490802005904000069080000790FE
:100C2000202008900002099000200A90694605489B
:100C300000F065FB0121034800F08CFB0BB000BD08
:100C40000024014008000240EC0000200EB54FF0E7
:100C5000804001F089FE0121084601F0C8FD0A200C
:100C6000ADF8040040F2CF20ADF800000020ADF850
:100C70000600ADF8020069464FF0804001F0DFFE4B
:100C80000121880702F02FFC01221146900702F093
:100C900077F90121880702F058F90EBD0EB5124808
:100CA00001F062FE0121042001F0A1FD0220ADF857
:100CB000040048F69F40ADF800000020ADF80600A3
:100CC000ADF802006946084801F0B9FE0121064866
:100CD00002F009FC01221146034802F051F90121FA
:100CE000014802F032F90EBD0008004010B50121A4
:100CF000480301F06FFD264801F036FE254802F05A
:100D0000FFF800202349088048804FF496508880DF
:100D10000020C88008721E4801F091FE1E4802F0B3
:100D2000F8F860201C4908800120488042F20550F4
:100D3000C88000200881164801F09AFE1649144820
:100D400001F0CDFE1449124801F013FF124910487A
:100D500001F057FF08210E4802F028FA08210C483C
:100D600002F02DFA08210A4802F036FA0821084854
:100D700002F03BFA0121064802F0E8F9002104489C
:100D800002F0EFF80021024802F0DFF810BD000089
:100D9000003401401E0100202801002010B5044647
:100DA000F748204430B1B0F5806F0DD0B0F5C05F8A
:100DB0001ED113E00121480201F026FD00214FF46D
:100DC000007001F021FD14E00121880201F01CFDFA
:100DD00000214FF4806001F017FD0AE00121C803F3
:100DE00001F012FD00214FF4004001F00DFD00E084
:100DF00000BF00BF10BD30B5024600200023506880
:100E0000E04C20400D790C6844EA052420435060F2
:100E10009068DD4C2040D1E902542C434D7944EADE
:100E2000450420439060D06A20F470000C7C641E5E
:100E30001C43E3B240EA0350D06230BD00210160A0
:100E4000017141718160C16001210174704721B15C
:100E5000826842F00102826003E0826822F00102AF
:100E60008260704721B1826842F48072826003E040
:100E7000826822F480728260704710B50023CBB282
:100E80001AB144681C43446002E044689C434460D7
:100E900010BD816841F00801816070470146002063
:100EA0008A6802F008020AB1012000E000207047C1
:100EB000816841F0040181607047014600208A6822
:100EC00002F004020AB1012000E00020704721B1C5
:100ED000826842F4A002826003E0826822F4A002E9
:100EE00082607047014600208A6802F480020AB1DD
:100EF000012000E00020704710B50A4600210023C1
:100F0000416821F46041531E41EA4331416010BD04
:100F100021B1426842F40062426003E0426822F478
:100F2000006242607047F0B504460D460020002183
:100F3000092D11DDE068A5F10A0606EB4607072634
:100F400006FA07F18843A5F10A0606EB460603FAFE
:100F500006F10843E0600CE0206905EB4507072631
:100F600006FA07F1884305EB450603FA06F1084344
:100F70002061072A0FDA606B561E06EB86071F26D4
:100F800006FA07F18843561E06EB860605FA06F1B7
:100F90000843606322E00D2A0FDA206BD61F06EBB0
:100FA00086071F2606FA07F18843D61F06EB86063A
:100FB00005FA06F10843206310E0E06AA2F10D068D
:100FC00006EB86071F2606FA07F18843A2F10D06F5
:100FD00006EB860605FA06F10843E062F0BD21B192
:100FE000826842F48012826003E0826822F48012F8
:100FF000826070470146C86C80B2704763480068E1
:10100000704721B1426842F48062426003E0426866
:1010100022F480624260704721B1426842F48052FB
:10102000426003E0426822F48052426070470A4600
:101030000021816821F4E04111438160704721B1B2
:10104000826842F40042826003E0826822F4004237
:101050008260704721B1826842F40212826003E02C
:10106000826822F4021282607047014600208A687A
:1010700002F400120AB1012000E000207047F0B530
:1010800004461546002000220026092911DDE068EB
:10109000A1F10A0707EB470C072707FA0CF2904368
:1010A000A1F10A0707EB470703FA07F21043E060D4
:1010B0000CE0206901EB410C072707FA0CF2904382
:1010C00001EB410703FA07F210432061A06BC0F364
:1010D0000156EF1C06F1010CA7EB0C0707EB870C80
:1010E0001F2707FA0CF29043EF1C06F1010CA7EB47
:1010F0000C0707EB870701FA07F21043A063F0BD66
:1011000010B50A4600210023816B21F44011531EC3
:1011100041EA0351816310BD4250704702465018A6
:10112000806A80B270470A4600214168184B194016
:101130001143416070474162826270470A46002154
:10114000416821F01F0111434160704740B10F49D0
:101150004439096841F400010C4A443A116007E03F
:101160000A494439096821F40001084A443A1160E7
:1011700070470246002013680B405BB101200AE073
:1011800000DCFEBFFFFEF0FFFDF7F1FF4C24014045
:10119000FFFD3FFF00207047CA430260704770B5F3
:1011A00002460020002300240B125568CEB205EA47
:1011B000060415681D4015B10CB1012000E00020A7
:1011C00070BD00220A12D34303607047016821F00A
:1011D000010101600021016041608160C160874AB6
:1011E000811A90425BD012DC854AA0EB020190424A
:1011F0003AD007DC83490144D9B1142922D02829E7
:101200007AD128E0142938D0282975D13EE0B1F5EB
:101210006C7F5BD006DCB1F5627F49D0B1F5677FAA
:101220006AD14CE0B1F5717F57D0B1F5767F63D1CB
:101230005BE073494439496841F00F01704A443A10
:1012400051605AE06E494439496841F0F0016C4AF6
:10125000443A516051E06A494439496841F4706147
:10126000674A443A516048E065494439496841F465
:101270007041634A443A51603FE0614944394968EA
:1012800041F470215E4A443A516036E05C49443989
:10129000496841F470015A4A443A51602DE0584976
:1012A0004439496841F07061554A443A516024E03C
:1012B0005549096841F00F01534A11601DE0524938
:1012C000096841F0F001504A116016E04E49096882
:1012D00041F470614C4A11600FE04B49096841F4D8
:1012E0007041494A116008E006E04749096841F445
:1012F0007021454A116000E000BF00BF704710B583
:101300000022026847F6F0739A430C6A8B68234305
:101310000C6923434C6923438C692343CC692343E1
:101320004C6A23438C6A23431A430260CB684360B0
:101330000B6883604B68C36010BD00210160416091
:101340008160C160016141618161C161016241628D
:101350008162704721B1026842F00102026003E03D
:10136000026822F00102026070471AB103680B4361
:10137000036002E003688B430360704701464868DE
:1013800080B2704701460020002201F080531BB15B
:101390001D4B1B1F1A6802E0194B443B1A6802EAF6
:1013A00001030BB1012000E00020704700F08051E4
:1013B00011B11549086002E011494439486070478D
:1013C00001460020002201F080531BB10E4B1B1F71
:1013D0001A6802E00A4B443B1A6802EA01030BB1A7
:1013E000012000E00020704700F0805111B1064953
:1013F000086002E0024944394860704780000240BA
:1014000044000240F8FFFDBF0404024000204C49A4
:101410000860091D0860091D0860091D0860494829
:1014200047491431086070478179002946D0444902
:10143000096802689143424A1160111D09680268F7
:1014400091433F4A121D116001793F4A1144D1F87E
:1014500000140268114302793B4B1A44C2F800148D
:1014600037490831096802689143354A08321160EA
:10147000111D096802689143314A0C3211604179AB
:1014800010290ED1111F0968026811432C4A083235
:101490001160111D096802681143294A0C3211605C
:1014A00018E04179284A1144D1F800140268114328
:1014B0004279254B1A44C2F800140BE00179224A04
:1014C0001144D1F800140268914302791E4B1A446A
:1014D000C2F8001470470021016001710C214171B4
:1014E0000021817170471649103109680143144A7F
:1014F00010321160704701460020114A1432126800
:101500000A400AB1012000E0002070470C49143164
:1015100008607047014600200022094B1B6803EA5F
:101520000102074B14331B680B4013B10AB10120B1
:1015300000E0002070470249143108607047000045
:1015400000040140FFFF070000000140FD49096859
:1015500001F03801FB4A116011460968014311602E
:101560007047F849096821F00801F64A11601146F0
:101570000968014311607047F249096821F01001C0
:10158000F04A116011460968014311607047EE4846
:10159000EC494860ED4848607047EA48006940F00F
:1015A0008000E849086170470420E649C96801F0F5
:1015B000010109B101200EE0E249C96801F004010E
:1015C00009B1022007E0DF49C96801F0100109B143
:1015D000032000E00420704708B500200090FF20A1
:1015E000009002E00098401E009000980028F9D179
:1015F00008BD70B504460425FFF7D6FF054605E093
:10160000FFF7EAFFFFF7D0FF0546641E012D01D169
:10161000002CF5D104B90525284670BD70B50546E6
:10162000042440F6FF70FFF7E4FF0446042C19D1B0
:10163000C448006940F00200C2490861084645619B
:10164000006940F04000086140F6FF70FFF7D1FFED
:101650000446012C06D0BB48006941F6FD710840E4
:10166000B8490861204670BD10B5042440F6FF70EB
:10167000FFF7BFFF0446042C18D1B248006940F0C0
:101680000400B04908610846006940F04000086164
:1016900040F6FF70FFF7ADFF0446012C06D0A948C5
:1016A000006941F6FB710840A6490861204610BD5B
:1016B00010B5042440F6FF70FFF79BFF0446042C8E
:1016C0003BD1A1489F498860A048886008460069CE
:1016D00040F0200008610846006940F040000861C1
:1016E00040F6FF70FFF785FF0446042C1CD1954897
:1016F000006941F6DF7108409249086108460069B7
:1017000040F010000861A520914908800F20FFF7E4
:1017100070FF0446012C10D08A48006941F6EF7131
:1017200008408849086108E0012C06D08548006916
:1017300041F6EF71084083490861204610BD70B53D
:1017400005460E4604240F20FFF753FF0446042CE1
:1017500025D17C48006940F001007A4908612E805B
:101760000F20FFF746FF0446042C0FD1300C688091
:101770000F20FFF73EFF0446012C10D0714800698E
:1017800041F6FE7108406F49086108E0012C06D05F
:101790006C48006941F6FE7108406A4908612046BC
:1017A00070BD70B505460E4604240F20FFF721FFDB
:1017B0000446042C13D16348006940F001006149DC
:1017C00008612E800F20FFF714FF0446012C06D07D
:1017D0005C48006941F6FE7108405A49086120469C
:1017E00070BD70B505460E4604240F20FFF701FFBB
:1017F0000446042C17D154485249886053488860E5
:101800000846006940F0100008612E800F20FFF7A5
:10181000F0FE0446012C06D04A48006941F6EF71FB
:10182000084048490861204670BD2DE9F04704464C
:101830004FF6FF763746B046B1460425E443E6B29C
:10184000C4F30727C4F307484FEA14690F20FFF7D2
:10185000D0FE0546042D40D13B483A4988603B48BC
:1018600088600846006940F010000861FF2E06D02D
:101870003748083006800F20FFF7BBFE0546042DD1
:1018800008D1FF2F06D032480A3007800F20FFF71B
:10189000B0FE0546042D0AD1B8F1FF0F07D02C4841
:1018A0000C30A0F800800F20FFF7A3FE0546042DA2
:1018B0000AD1B9F1FF0F07D025480E30A0F80090EB
:1018C0000F20FFF796FE0546012D06D01D48006942
:1018D00041F6EF7108401B4908612846BDE8F087D2
:1018E00070B50546042440F6FF70FFF782FE0446FB
:1018F000042C4AD11448134988601448886008466B
:10190000006940F0200008610846006940F040008E
:10191000086140F6FF70FFF76CFE0446042C2BD1E3
:101920000848006941F6DF71084006490861084629
:10193000006940F01000086165B10020044908808A
:101940000BE000000020024023016745AB89EFCD8A
:1019500000F8FF1FA5204549088040F6FF70FFF7FB
:1019600048FE0446012C10D04148006941F6EF7151
:1019700008403F49086108E0012C06D03C48006956
:1019800041F6DF7108403A490861204670BD2DE9F3
:10199000F04107460D46164604243648344988600F
:1019A000354888600F20FFF724FE0446042C1AD126
:1019B0002F48006940F010002D49086147EA0500F2
:1019C000304340F0F8002949891C08800F20FFF7B8
:1019D00010FE0446012C06D02548006941F6EF713F
:1019E0000840234908612046BDE8F0812048C069CD
:1019F000800870471E48006A704700201C49C9696A
:101A000001F0020109B1012000E000207047002030
:101A10001749096801F0200109B1012000E0002008
:101A2000704729B1124A12690243114B1A6104E04E
:101A30000F4A126982430E4B1A617047014600201B
:101A4000012908D10A4AD26902F001020AB1012033
:101A500008E0002006E0064AD2680A400AB10120E8
:101A600000E0002070470249C860704700F8FF1F7F
:101A70000020024023016745AB89EFCD10B5044635
:101A8000C549601A8C422FD009DCC448204480B17B
:101A9000B0F5806F16D0B0F5006F4AD11BE0B0F5FD
:101AA000806F2AD0B0F5006F30D0B0F5406F40D1D4
:101AB00035E00121042000F0A7FE0021042000F001
:101AC000A3FE37E00121082000F09EFE002108203F
:101AD00000F09AFE2EE00121102000F095FE00217A
:101AE000102000F091FE25E00121202000F08CFE66
:101AF0000021202000F088FE1CE00121402000F0A1
:101B000083FE0021402000F07FFE13E001218020B1
:101B100000F07AFE0021802000F076FE0AE001212C
:101B2000080200F071FE00214FF4807000F06CFE9E
:101B300000E000BF00BF10BD10B50121084600F055
:101B400063FE0021012000F05FFE10BD2DE9F04191
:101B5000024600250026002000230024002791F8DB
:101B600003C00CF00F0591F803C00CF0100CBCF191
:101B7000000F03D091F802C04CEA050591F800C0AF
:101B8000BCF1000F30D0146800202AE04FF0010CA7
:101B90000CFA00F3B1F800C00CEA03069E421FD114
:101BA00083004FF00F0C0CFA03F7BC4305FA03FC5B
:101BB0004CEA040491F803C0BCF1280F05D14FF0A2
:101BC000010C0CFA00FCC2F814C091F803C0BCF17F
:101BD000480F05D14FF0010C0CFA00FCC2F810C000
:101BE000401C0828D2D31460B1F800C0BCF1FF0F2C
:101BF00034DD546800202EE000F1080C4FF001089D
:101C000008FA0CF3B1F800C00CEA03069E4221D199
:101C100083004FF00F0C0CFA03F7BC4305FA03FCEA
:101C20004CEA040491F803C0BCF1280F05D100F17F
:101C3000080C08FA0CF8C2F8148091F803C0BCF143
:101C4000480F07D100F1080C4FF0010808FA0CF812
:101C5000C2F81080401C0828CED35460BDE8F08143
:101C60004FF6FF710180022181700421C17070471D
:101C70000246002093680B400BB1012000E00020D9
:101C800070470146886880B2704702460020D368DA
:101C90000B400BB1012000E0002070470146C868EE
:101CA00080B2704701617047416170470AB10161BC
:101CB00000E041617047C16070474FF480320A43D1
:101CC0008261816182618269826970470246002077
:101CD000334B18684FF68073184040EA02100843EF
:101CE0002F4B186070472F49C8617047F0B50A46FE
:101CF0000023002400210025294E7168C0F303450C
:101D000083B200F44016B6F5401F08D121F070618F
:101D1000234E766826F07066214F7E6012E000F454
:101D20008016B6F5801F06D1032606FA05F4A143F6
:101D300041F0706106E0460D360103FA06F6B14344
:101D400041F0706122B1460D360103FA06F63143C7
:101D5000134E7160F0BD30B500228B071C0F0F23AE
:101D600003FA04F20E4B08338C1053F824309343DB
:101D70000B4C08348D1044F8253023468C1053F852
:101D800024308C07240F00FA04F42343044C083455
:101D90008D1044F8253030BD0014014000F8FEBF1E
:101DA0000000014000002042002000E0401C3228DA
:101DB000FCDB7047704700BFFEE700BFFEE700BFD7
:101DC000FEE700BFFEE7704770477047BE480068F7
:101DD00000EBC00101EB0010BC490860BC48006882
:101DE000401CBB490860BB480068401CB9490860FA
:101DF0000020B549086070477047704770477047CA
:101E00007047704710B504460120B3490880072C7D
:101E10007DD2DFE804F0951C4C347D046400002082
:101E2000AE490880AE480088091F08800020AB49F1
:101E3000091D08808021AB48FFF736FF0221AA4820
:101E4000FFF732FF0121A848FFF72CFF79E00020BF
:101E5000A2490880A2480088091F088000209F49E5
:101E6000091D088080219F48FFF71EFF02219E4820
:101E7000FFF718FF01219C48FFF716FF61E00020E3
:101E80009649091F088096480088091D088000208F
:101E9000091D088080219348FFF706FF0221924820
:101EA000FFF700FF01219048FFF7FEFE49E0002008
:101EB0008A49091F08808A480088091D0880002077
:101EC000091D088080218748FFF7ECFE0221864823
:101ED000FFF7EAFE01218448FFF7E6FE31E000202B
:101EE0007E4908807E480088091D088000207B49C3
:101EF000091F088080217B48FFF7D4FE02217A4821
:101F0000FFF7D2FE01217848FFF7CEFE19E017E077
:101F100000207249088072480088091D088000204E
:101F20006E49091F088080216E48FFF7BDFE02211F
:101F30006D48FFF7B9FE01216B48FFF7B3FE00E0E3
:101F400000BF00BF10BD70477047704710B5082034
:101F5000FFF7E0FA40B110216448FFF789FE6449B9
:101F600008600820FFF7E7FA10BD70477047704718
:101F70007047704770477047704710B54FF49061D5
:101F80005C48FFF70CF901280DD15B480088401C24
:101F90005949088057483C300068584908806FF01C
:101FA00004005449086010BD70477047704770477F
:101FB000704770477047704710B50121880701F0DE
:101FC00095FA68B10121880701F0A1FA4C48008810
:101FD000401C4B4908804B480088401C49490880F8
:101FE00010BD704710B50121474801F07FFA002865
:101FF0004CD00121444801F08AFA04214348FFF7FC
:1020000037FEC0B942480068401C41490860084694
:10201000006832280FDD002008603E480068C830A4
:102020003C4908600846006842F21071884202DDAF
:1020300008463849086004213448FFF719FE10B1FA
:1020400000203349086008213048FFF711FEA8B985
:1020500031480068401C3049086008460068322852
:102060000CDD002008602B480068C838294908604A
:1020700008460068002801DA00200860082123488B
:10208000FFF7F6FD10B100202349086010BD70472E
:102090007047704770477047704770477047704788
:1020A0007047704770477047704770477047704778
:1020B0007047704770477047704770477047704768
:1020C0007047704770477047800000208C000020E8
:1020D00074000020780000204C00002038340140BB
:1020E000C400002000080140000C01400014014021
:1020F0007000002000240140BC000020B800002037
:10210000C2000020560000200008004000180140D6
:10211000D000002090000020D40000200020411EAC
:10212000ED4A11600A09EC498039C1F88420411E4A
:102130004FF0E022C2F880120A09E8490A6000BFA5
:1021400004E00022E64941F82020401C0F28F8D383
:10215000704700204FF02061E24A11600021121DFB
:102160001160E149121D11600021121D1160121D44
:10217000116000BF05E00022DA49143141F8202047
:10218000401C0328F7D30021D64A20321160491E93
:10219000121D1160121D1160121D11607047D2498D
:1021A0000143D04A083211607047F0B50021002287
:1021B000002300250F24C678002E35D0C94E0836DE
:1021C000366806F4E066C6F5E066310AC1F104053A
:1021D000CC40467806FA05F186782640314309015D
:1021E0000678B607F60EB140BD4E0778BF1056F818
:1021F00027200678B607F70EFF2606FA07F39A435C
:1022000019400A43B64E0778BF1046F827200678D3
:1022100006F01F070126BE4007787F11BF0007F1B7
:10222000E027C7F800610BE0067806F01F070126DB
:10223000BE40A94F90F800C04FEA6C1C47F82C60D4
:10224000F0BD0021017041708170C170704710B500
:10225000FDF79FFF10BD10B5FDF799FF10BD10B53C
:10226000FDF79CFF10BD10B5FDF79AFF10BD10B52E
:1022700004462001FDF799FF10BD10B5FDF798FF4A
:1022800010BD98480068C0F30930704710B501468A
:102290000020002201F01F04012303FA04F28E4BF8
:1022A00080334C1153F824301340934201D1012064
:1022B00000E0002010BD8D490860704700F01F024B
:1022C00001219140854A121F431142F823107047A3
:1022D00084480068C0F30900704710B5014600202B
:1022E000002201F01F04012303FA04F27B4B7C332C
:1022F0004C1153F824301340934201D1012000E0E7
:10230000002010BD7748001F00687047784A0A40D7
:102310000243744B1B1D1A6070477348001D7149BE
:102320000831086070477048401C6E4908310860E9
:10233000704739B16B4A0C3212680243694B0C3357
:102340001A6006E0674A0C3212688243654B0C3310
:102350001A60704710B5002200F01F04012303FA31
:1023600004F239B15F4B20331B6813435D4C2034BA
:10237000236006E05B4B20331B689343594C2034A9
:10238000236010BDF0B503460C4615460020FF2221
:1023900000260021534F08373F6807F4E067C7F570
:1023A000E067390AC1F10400CA4004FA00F105EA05
:1023B00002073943090103F0C0008009C3F3012279
:1023C000D700B9404FEAC20CFF2707FA0CF6454F79
:1023D000143757F82070B743DFF808C10CF1140C1C
:1023E0004CF82070674657F820700F434CF8207067
:1023F000F0BD10B50246002000230021910A01F033
:102400000F01012404FA01F1364C2034246804EA57
:1024100001038B4201D1012000E0002010BD00210A
:1024200000F01F012F4A126801238B401A432D4BE5
:102430001A60704710B5002100F01F01294A126888
:102440004B1E01249C402243264B1A6010BD10B540
:102450000246002000230021C2F38331012404FA44
:1024600001F1204C2034246804EA01038B4201D19D
:10247000012000E0002010BD30B501460020002200
:102480000023C1F38142C1F301531AB9154C28341A
:10249000206811E0012A0CD1124C24342468DD009C
:1024A00024FA05F0022B02D000F00F0004E0C0B2C5
:1024B00002E00C4C2C34206830BD01460020002284
:1024C000C1F380521AB9074B3033186802E0054B4C
:1024D000343318687047000080E100E084E200E0D7
:1024E00000E400E004ED00E00000FA0500EF00E089
:1024F00080FFFF1FE048006840F00100DE490860EF
:1025000008464068DD490840DB49486008460068E5
:10251000DB490840D84908600846006820F480205C
:1025200008600846406820F4FE004860002088608B
:102530007047D149096821F48031CF4A11601146B2
:10254000096821F480211160B0F5803F03D0B0F517
:10255000802F0ED106E0C849096841F48031C64A8F
:10256000116007E0C449096841F4A021C24A116022
:1025700000E000BF00BF704710B5014600220023F5
:1025800000204A11012A02D1BB4C236806E0022A2E
:1025900002D1B94C236A01E0B74C636A01F01F0213
:1025A000012494401C400CB1012000E0002010BD2B
:1025B00010B5002400BF3120FFF7DEFFB1490870DD
:1025C000B1480068401CB0490860AE48007828B99E
:1025D0000846006840F2FF118842ECD13120FFF735
:1025E000CBFF08B1012400E00024204610BD0146C5
:1025F0000020A14A106820F0F80040EAC1001060F5
:102600007047A24908607047024600209A4B5868FC
:1026100020F47C1042EA01031843974B586070473E
:102620009A490866704701460020934A506820F096
:1026300003000843506070478F48406800F00C006A
:102640007047014600208C4A506820F0F000084393
:102650005060704701460020874A506820F4E060CF
:1026600008435060704701460020834A506820F4B8
:10267000605040EAC1005060704729B17E4A527AEA
:1026800002437D4B5A7204E07B4A527A82437A4B72
:102690005A7270477D49D831086070470146002062
:1026A000754A506820F4404008435060704700214C
:1026B000714A20321170704A82F82010012802D02D
:1026C00004280AD104E001216B4A2032117005E090
:1026D0000521694A2032117000E000BF00BF704739
:1026E0006B49086070476449096A0143624A116294
:1026F0007047674944390860704730B500210022AF
:10270000002400235C4D6D6805F00C0121B1042903
:1027100005D0082923D105E05E4D056022E05D4D1E
:1027200005601FE0544D6D6805F47012022505EB3D
:102730009242514D6D6805F480341CB9564D554395
:1027400005600BE04C4D6D6805F400351DB1524D30
:102750005543056002E04F4D5543056002E04D4D85
:10276000056000BF00BF444D6D6805F0F001090928
:102770004A4D6B5C0568DD4045603F4D6D6805F472
:10278000E061090A454D6B5C4568DD4085603A4D66
:102790006D6805F46051C90A404D6B5C4568DD40C9
:1027A000C560354D6D6805F44041890B3C4D6B5C4F
:1027B000C568B5FBF3F5056130BD29B12E4A5269F4
:1027C00002432D4B5A6104E02B4A526982432A4B43
:1027D0005A61704729B1284A92690243264B9A618F
:1027E00004E0254A92698243234B9A61704729B1DC
:1027F000214AD2690243204BDA6104E01E4AD269C1
:1028000082431D4BDA61704729B11B4AD2680243EB
:10281000194BDA6004E0184AD2688243164BDA603A
:10282000704729B1144A12690243134B1A6104E03C
:10283000114A12698243104B1A617047144940399A
:10284000086070471149C86470470B49C8717047E8
:102850000948406A40F08070074948627047014665
:102860000020054A92680A400AB1012000E00020D9
:102870007047014988727047001002400000FFF85D
:10288000FFFFF6FED8000020DC00002000004242DE
:102890008004424200127A0000093D00B63A000866
:1028A000C63A0008042808D14FF0E021096941F038
:1028B00004014FF0E022116107E04FF0E0210969C7
:1028C00021F004014FF0E022116170474FF0E02148
:1028D00048617047012808D14FF0E021096941F0B3
:1028E00001014FF0E02211610EE0811C41B94FF06F
:1028F000E021096921F001014FF0E022116103E0BC
:1029000000214FF0E0229161704740B14FF0E0218B
:10291000096941F002014FF0E022116107E04FF038
:10292000E021096921F002014FF0E02211617047B6
:102930004FF0E0208069704710B501460022002367
:102940000020CB10022B03D14FF0E024226902E0DB
:102950004FF0E024E26901248C4014400CB10120C6
:1029600000E0002010BD000010B50446F749601AD1
:102970008C4245D00CDCB4F1804F1DD0F44820448B
:1029800018B3B0F5806F29D0B0F5006F54D12EE0A8
:10299000B0F5806F3DD0B0F58E3F03D0B0F5923FDB
:1029A0004AD13FE00121C802FFF72EFF00214FF47A
:1029B0000060FFF729FF40E001210846FFF731FFE3
:1029C00000210120FFF72DFF37E001210220FFF752
:1029D00028FF00210220FFF724FF2EE00121042020
:1029E000FFF71FFF00210420FFF71BFF25E0012157
:1029F0000820FFF716FF00210820FFF712FF1CE058
:102A000001211020FFF70DFF00211020FFF709FF23
:102A100013E001212020FFF704FF00212020FFF711
:102A200000FF0AE001214803FFF7EEFE00214FF40A
:102A30000050FFF7E9FE00E000BF00BF10BD0288B4
:102A400002F08F020280CA884B881A4303881A4317
:102A500002808A8882850A88028501228282BD4A94
:102A6000904202D0BC4A904201D10A7A0286704755
:102A700070B5002400220023058C4FF6FE76354009
:102A80000584028C8388048B4FF68F752C400D884B
:102A90002C43751E2A400D892A434D882A43CD8830
:102AA0008586AC4DA84202D0AB4DA84213D14FF65B
:102AB000F7752A404D892A434FF6FB752A408D88C9
:102AC0002A4347F6FF652B4047F6FF552B408D897B
:102AD0002B43CD892B4383800483028470BD70B562
:102AE000002400220023058C4FF6EF763540058444
:102AF000028C8388048B48F6FF752C400D884FF6B6
:102B0000FF7606EA05252C434FF6DF752A400D892E
:102B100006EA05152A434D8806EA05152A43CD889D
:102B200005878C4DA84202D08B4DA8421DD14FF68F
:102B30007F752A404D894FF6FF7606EA05152A4330
:102B40004FF6BF752A408D8806EA05152A4347F6D9
:102B5000FF352B4047F2FF752B408D8906EA85052E
:102B60002B43CD8906EA85052B43838004830284A9
:102B700070BD70B5002400220023058C4FF6FF665F
:102B800035400584028C8388848B4FF68F752C40EA
:102B90000D882C434FF6FF552A400D894FF6FF76DE
:102BA00006EA05252A434D8806EA05252A43CD88ED
:102BB0008587684DA84202D0674DA8421DD14FF2CB
:102BC000FF752A404D894FF6FF7606EA05252A4310
:102BD0004FF6FF352A408D8806EA05252A4346F63A
:102BE000FF752B4045F6FF752B408D8906EA0515CC
:102BF0002B43CD8906EA05152B4383808483028409
:102C000070BD70B5002400220023058C4EF6FF76BF
:102C100035400584028C8388848B48F6FF752C40F0
:102C20000D884FF6FF7606EA05252C434DF6FF7515
:102C30002A400D8906EA05352A434D8806EA0535FE
:102C40002A43CD88A0F84050424DA84202D0424DC0
:102C5000A84207D1C3F30D038D894FF6FF7606EA2C
:102C600085152B4383808483028470BD828B4FF251
:102C7000FF331A408283828B4FF6FF7303EA0123EE
:102C80001A4382837047F0B50C4615460021002296
:102C90000026078C4EF6FF7C07EA0C070784818B21
:102CA000028C4FF6FF7707EA043640F6FF473940BB
:102CB0004FF6FF7707EA05274FF6FF7C0CEA033C47
:102CC00047EA0C0739434DF6FF773A4046F4805700
:102CD0003A4381830284F0BD828B4FF6F3731A402E
:102CE0008283828B0A4382837047F0B50C46154677
:102CF000002100220026078C4FF6FF6C07EA0C0724
:102D00000784818B028C4FF6FF7707EA04264FF683
:102D10000C7739404FF6FF7707EA03172F43394303
:102D20004FF6FF573A4046F480773A438183028456
:102D3000F0BD028B4FF2FF331A400283028B4FF635
:102D4000FF7303EA01231A43028370470010004017
:102D500000FCFFBF002C014000340140F0B50C46E0
:102D60001546002100220026078C4FF6EF7C07EA6B
:102D70000C070784018B028C4FF6FF7707EA0416D5
:102D800040F6FF4739404FF6FF7707EA03373943EC
:102D90004FF6FF7707EA052739434FF6DF773A40CA
:102DA00046F010073A4301830284F0BD028B4FF6D0
:102DB000F3731A400283028B0A4302837047F0B513
:102DC0000C46154600210022068C4FF6FE773E4049
:102DD0000684018B028C4FF60C7631407E1C06EA8D
:102DE00003162E4331437E1E324044F00106324327
:102DF00001830284F0BD70B505460C46208850B9A9
:102E00002389A28861882846FFF7D9FFE1882846F0
:102E1000FFF7CCFF25E0208804280AD12389A28867
:102E200061882846FFF79AFFE1882846FFF781FF6F
:102E300017E0208808280AD12389A28861882846BB
:102E4000FFF753FFE1882846FFF746FF09E0238993
:102E5000A28861882846FFF716FFE1882846FFF719
:102E600005FF70BD2DE9F04105460C4600260127FF
:102E7000608808B9022600E00026A088012801D158
:102E8000022700E001272088A0B92389A288618851
:102E90002846FFF794FFE1882846FFF787FF23893C
:102EA0003A4631462846FFF759FFE1882846FFF7A2
:102EB00040FF13E02389A28861882846FFF74EFF70
:102EC000E1882846FFF735FF23893A4631462846F0
:102ED000FFF775FFE1882846FFF768FFBDE8F0813E
:102EE0000A884B881A438B881A43CB881A430B896C
:102EF0001A434B891A438B891A43A0F84420704720
:102F00004FF6FF71818000210180C18041800172F4
:102F100070470021018041808180C1800181418111
:102F20008181C18170470021018041800121818020
:102F30000021C18001817047002101804180818092
:102F4000C180018141818181704721B1028842F0B5
:102F50000102028004E0028840F2FE331A4002803F
:102F6000704731B1B0F8442042F40042A0F8442048
:102F700005E0B0F84420C2F30E02A0F844207047E8
:102F80001AB183890B43838102E083898B43838158
:102F900070478182704741EA0203A0F848307047C9
:102FA0001AB183890B43838102E083898B43838138
:102FB000704701894FF6F8721140018170470A4647
:102FC000002101894FF68F73194011430181704729
:102FD00030B504460D4629462046FFF7F0FF20890C
:102FE00040F00700208130BD2DE9F04104460D4638
:102FF00016461F46602D06D13B460122314620462B
:10300000FFF7ACFE05E03B46012231462046FFF7C4
:10301000D6FE29462046FFF7D2FF208940F0070060
:103020002081BDE8F08170B50C4600210189C9B24C
:1030300044EA02054FF6FF7606EA032635432943A4
:10304000018170BD2DE9F04105460E4617469846B0
:10305000002443463A4631462846FFF7E4FF2C89D0
:103060004FF6F870044044F007044FF68F700440A8
:1030700044F070042C81BDE8F081F0B504460D46A3
:1030800016461F463B46324629462046FFF7CBFFF1
:10309000208940F480402081F0BD01858282704704
:1030A0000A460021018840F28F3319401143018004
:1030B0007047F0B50C4615461E460021002200233D
:1030C0000189028B038C4FF6F877394021434FF684
:1030D000FC473A4040F201173A434FF6DD773B4058
:1030E0004FF6FF7707EA06172F433B430181028320
:1030F0000384F0BD0A460021018B4FF68F731940FF
:103100001143018370470A460021018B48F6FF7383
:1031100019404FF6FF7303EA0223194301837047F6
:103120000A460021818B4FF68F731940114381832A
:1031300070470A460021818B48F6FF7319404FF60D
:10314000FF7303EA022319438183704721B1028888
:1031500042F08002028004E0028840F27F331A408D
:103160000280704721B1828842F00402828004E02C
:1031700082884FF6FB731A408280704721B18288A3
:1031800042F00802828004E082884FF6F7731A400A
:103190008280704721B1828842F00102828004E07F
:1031A00082884FF6FE731A40828070470A460021DB
:1031B000018B4FF6F77319401143018370470A469C
:1031C0000021018B4FF2FF7319404FF6FF7303EAA2
:1031D00002231943018370470A460021818B4FF671
:1031E000F77319401143818370470A460021818B90
:1031F0004FF2FF7319404FF6FF7303EA022319439E
:10320000818370470A460021018B4FF6FB731940FA
:103210001143018370470A460021018B4FF6FF33AB
:1032200019404FF6FF7303EA0223194301837047E5
:103230000A460021818B4FF6FB73194011438183AD
:1032400070470A460021818B4FF6FF3319404FF635
:10325000FF7303EA02231943818370470A46002162
:10326000018B4FF67F7319401143018370470A4663
:103270000021018BC1F30E014FF6FF7303EA022315
:103280001943018370470A460021818B4FF67F73F3
:1032900019401143818370470A460021818BC1F395
:1032A0000E014FF6FF7303EA02231943818370472F
:1032B0000A460021018C4FF6FD7319401143018429
:1032C00070470A460021018C4FF6F77319401143ED
:1032D000018470470A460021018C4FF6DF731940C4
:1032E0004FF6FF7303EA02131943018470470A463D
:1032F0000021018C4FF67F7319404FF6FF7303EAEC
:1033000002131943018470470A460021018C4FF6CD
:10331000FF5319404FF6FF7303EA02231943018458
:1033200070470A460021018C4FF2FF7319404FF697
:10333000FF7303EA02231943018470470A46002100
:10334000018C4DF6FF7319404FF6FF7303EA023309
:1033500019430184704710B5038C01248C40A343AA
:103360000384038C02FA01F4A4B22343038410BD46
:1033700010B5038C04248C40A3430384038C02FA0D
:1033800001F4A4B22343038410BD30B5038C01249F
:103390008C40A343038409B1082912D100F118031A
:1033A00003EB61031B684FF68F74234000F1180490
:1033B00004EB6104236000F1180303EB61031A605E
:1033C00018E00B1FC3F34E0400F118031B5948F615
:1033D000FF7423400C1FC4F34E0500F11804635121
:1033E0004FF6FF7303EA02240B1FC3F34E0500F1EF
:1033F00018035C5130BD21B1028842F00202028004
:1034000004E0028840F2FD331A400280704721B187
:10341000028842F00402028004E0028840F2FB339A
:103420001A400280704721B1828842F08002828077
:1034300004E082884FF67F731A40828070470288CA
:1034400040F2F7331A40028002880A430280704734
:1034500082884FF68F731A40828082880A43828066
:10346000704702894FF6F8731A40028102890A43B5
:103470000281704702894FF67F731A4002810289E8
:103480000A43028170478184704781857047818635
:1034900070470187704781877047A0F840107047D8
:1034A0000288D2B2028002880A4302807047014635
:1034B000888E70470146088F70470146888F704795
:1034C0000146B1F8400070470146888C70470146BC
:1034D000088D704702460020138A0B400BB1012073
:1034E00000E000207047CA430282704730B50246B0
:1034F000002000230024158A05EA0103958905EAC6
:10350000010413B10CB1012000E0002030BDCA431A
:103510000282704710B50446D749601A8C422BD0FE
:1035200006DCD648204498B1B0F5806F38D119E058
:10353000B0F5806F2AD0B0F56C4F31D101218803EE
:10354000FFF762F900214FF48040FFF75DF928E0B2
:1035500001214804FFF765F900214FF40030FFF71F
:1035600060F91EE001218804FFF75BF900214FF4A8
:103570008020FFF756F914E00121C804FFF751F944
:1035800000214FF40020FFF74CF90AE00121080563
:10359000FFF747F900214FF48010FFF742F900E0F0
:1035A00000BF00BF10BD2DE9F04786B005460E46AE
:1035B0000024A24600BF00BF00272F462C8A4CF6ED
:1035C000FF700440F08804432C82AC894EF6F3105F
:1035D0000440B08831890843718908430443AC81B1
:1035E000AC8A4FF6FF400440B0890443AC8201A886
:1035F000FFF783F8A248874202D1DDF810A001E06E
:10360000DDF80CA00AEBCA0000EB0A103168890053
:10361000B0FBF1F86420B8FBF0F00401200964214C
:1036200001FB1089322000EB0910B0FBF1F000F033
:103630000F0004432C8106B0BDE8F0874FF416510B
:10364000016000218180C18001810C214181002124
:103650008181704710B502460020108A4FF2FF03A7
:1036600018400B884C8823438C882343CC88234301
:103670001843108210BD0021018041808180C180EB
:10368000704721B1828942F40052828104E082892C
:103690004DF6FF731A4082817047F0B5034600244F
:1036A0000026002500201846C1F3421401F01F0631
:1036B000012707FA06F5012C01D10C3004E0022C99
:1036C00001D1103000E014301AB107682F430760B1
:1036D00002E00768AF430760F0BD1AB1838A0B436D
:1036E000838202E0838A8B4383827047028A4FF68B
:1036F000F0731A400282028A0A430282704782896A
:103700004FF2FF731A40828182890A438281704797
:1037100021B1828942F00202828104E082894FF65F
:10372000FD731A4082817047028A4FF6DF731A4098
:103730000282028A0A430282704721B1028A42F45D
:103740008042028204E0028A4BF6FF731A40028232
:103750007047C1F308028280704701468888C0F331
:1037600008007047818941F0010181817047028B17
:10377000D2B20283028B42EA012202837047028B9B
:1037800002F47F420283028B0A430283704721B115
:10379000828A42F02002828204E0828A4FF6DF733E
:1037A0001A408282704721B1828A42F010028282DE
:1037B00004E0828A4FF6EF731A408282704721B18B
:1037C000828A42F00802828204E0828A4FF6F7730E
:1037D0001A4082827047828A4FF6FB731A408282B7
:1037E000828A0A438282704721B1828A42F00202B1
:1037F000828204E0828A4FF6FD731A40828270470B
:103800000246002013880B400BB1012000E000208D
:103810007047CA430280704770B502460B460024C9
:10382000002100250020C3F3421503F01F010126EB
:1038300006FA01F1012D02D19689314006E0022DF0
:1038400002D1168A314001E0968A31401C120126CD
:1038500006FA04F41688344011B10CB1012000E0DE
:10386000002070BD10B5002200230A1201249440EC
:10387000A3B2DC43048010BD004C004000BCFFBF7D
:1038800000380140F0B480EA0102D40F4200B2EBEC
:10389000410F02D20246084611464A0042D0C30DEB
:1038A000DDB2C1F3C752AD1A202D35DAC1F31601CE
:1038B00041F4000204B15242C5F1200602FA06F1B9
:1038C0002A411044B3EBD05F23D0C4B1012DA0EB4B
:1038D000C35009DCF0BC4FF0004202EAC352DBB235
:1038E00000F5000000F097B8400000F1807000EB98
:1038F000C350A0F1807040EAD170490009E0490846
:1039000041EAC071A0EBC35000F50000400800EB95
:10391000C350F0BC00F076B86142012202EB4101D5
:10392000001BF6E7F0BC704781F00041AAE780F089
:103930000040A7E780EA010210B502F00043400012
:1039400022D04A001FD0010E01EB1261C0F35600D5
:10395000C2F3560240F4000042F40002A0FB022031
:1039600000047F39140400D0401C50EA124001D4F6
:103970004000491EC2B20C0604EBD010401C4008A7
:10398000802A02D003E0002010BD20F001000029B1
:1039900000DA0020184310BDC10F80EAE07008442F
:1039A000CA079623002100F036B800F0004220F04C
:1039B0000040C10DC0F3160040F400007F2901DA79
:1039C00000207047962903DCC1F19601C84001E050
:1039D00096398840002AF4D040427047002801DB25
:1039E000C0F10040002901DBC1F100418142704774
:1039F000002801DBC0F10040002901DBC1F10041DA
:103A0000884270470029A8BF7047401C490008BF82
:103A100020F00100704710B4B0FA80FC00FA0CF0FE
:103A200050EA010404BF10BC704749B1CCF1200436
:103A300021FA04F411FA0CF118BF012121430843C3
:103A4000A3EB0C01CB1D4FEA00614FEA102042BFEF
:103A5000002010BC704700EBC35010440029A4BFE5
:103A600010BC7047401C490008BF20F0010010BC8A
:103A700070470000064C074D06E0E06840F0010387
:103A800094E8070098471034AC42F6D3FCF754FB97
:103A9000CC3A0008EC3A000802E008C8121F08C13E
:103AA000002AFAD170477047002001E001C1121FBF
:103AB000002AFBD17047000000000102030401024C
:103AC000030406070809020406080000EC3A00088F
:103AD00000000020E0000000983A0008CC3B0008FD
:103AE000E000002068100000A83A00080000000074
:103AF0000000000005000000F401000000000000CC
:103B0000F4010000000000000000000000000000C0
:103B100000000000CDCCCC3D0AD7A33D0000000042
:103B20000000000000000000000000000000000095
:103B30000000000000000000000000000000000085
:103B40000000000000000000000000000007050366
:103B50000401000207050103020604000000000042
:103B60000000000000000000000000000000000055
:103B70000000000000000000000000000000000045
:103B80000000000000000000000000000000000035
:103B90000000000000000000000000000000000025
:103BA0000000000000000000000000000000000015
:103BB000E80300000000000000000000000000001A
:0C3BC000000000000000000000000000F9
:0400000508000131BD
:00000001FF
